{
  "contractName": "PeekABook",
  "abi": [
    {
      "anonymous": false,
      "inputs": [
        {
          "indexed": false,
          "internalType": "uint256",
          "name": "adID",
          "type": "uint256"
        },
        {
          "indexed": true,
          "internalType": "string",
          "name": "pairIndex",
          "type": "string"
        },
        {
          "indexed": false,
          "internalType": "string",
          "name": "pair",
          "type": "string"
        },
        {
          "indexed": true,
          "internalType": "bool",
          "name": "buyOrSell",
          "type": "bool"
        },
        {
          "indexed": false,
          "internalType": "uint256",
          "name": "amount",
          "type": "uint256"
        },
        {
          "indexed": false,
          "internalType": "string",
          "name": "peerID",
          "type": "string"
        },
        {
          "indexed": true,
          "internalType": "address",
          "name": "advertiser",
          "type": "address"
        }
      ],
      "name": "Advertise",
      "type": "event"
    },
    {
      "anonymous": false,
      "inputs": [
        {
          "indexed": false,
          "internalType": "uint256",
          "name": "adID",
          "type": "uint256"
        }
      ],
      "name": "Invalidate",
      "type": "event"
    },
    {
      "constant": true,
      "inputs": [
        {
          "internalType": "uint256",
          "name": "",
          "type": "uint256"
        }
      ],
      "name": "advertisers",
      "outputs": [
        {
          "internalType": "address",
          "name": "",
          "type": "address"
        }
      ],
      "payable": false,
      "stateMutability": "view",
      "type": "function"
    },
    {
      "constant": true,
      "inputs": [],
      "name": "maxID",
      "outputs": [
        {
          "internalType": "uint256",
          "name": "",
          "type": "uint256"
        }
      ],
      "payable": false,
      "stateMutability": "view",
      "type": "function"
    },
    {
      "constant": false,
      "inputs": [
        {
          "internalType": "string",
          "name": "pair",
          "type": "string"
        },
        {
          "internalType": "bool",
          "name": "buyOrSell",
          "type": "bool"
        },
        {
          "internalType": "uint256",
          "name": "amount",
          "type": "uint256"
        },
        {
          "internalType": "string",
          "name": "peerID",
          "type": "string"
        }
      ],
      "name": "advertise",
      "outputs": [
        {
          "internalType": "uint256",
          "name": "",
          "type": "uint256"
        }
      ],
      "payable": false,
      "stateMutability": "nonpayable",
      "type": "function"
    },
    {
      "constant": false,
      "inputs": [
        {
          "internalType": "uint256",
          "name": "adID",
          "type": "uint256"
        }
      ],
      "name": "invalidate",
      "outputs": [],
      "payable": false,
      "stateMutability": "nonpayable",
      "type": "function"
    }
  ],
  "bytecode": "0x608060405234801561001057600080fd5b506106a4806100206000396000f3fe608060405234801561001057600080fd5b506004361061004c5760003560e01c80631ea1afdb1461005157806324230a501461007f578063baf19228146101fb578063ecacaf0b14610269575b600080fd5b61007d6004803603602081101561006757600080fd5b8101908080359060200190929190505050610287565b005b6101e56004803603608081101561009557600080fd5b81019080803590602001906401000000008111156100b257600080fd5b8201836020820111156100c457600080fd5b803590602001918460018302840111640100000000831117156100e657600080fd5b91908080601f016020809104026020016040519081016040528093929190818152602001838380828437600081840152601f19601f820116905080830192505050505050509192919290803515159060200190929190803590602001909291908035906020019064010000000081111561015f57600080fd5b82018360208201111561017157600080fd5b8035906020019184600183028401116401000000008311171561019357600080fd5b91908080601f016020809104026020016040519081016040528093929190818152602001838380828437600081840152601f19601f8201169050808301925050505050505091929192905050506103f5565b6040518082815260200191505060405180910390f35b6102276004803603602081101561021157600080fd5b81019080803590602001909291905050506105ff565b604051808273ffffffffffffffffffffffffffffffffffffffff1673ffffffffffffffffffffffffffffffffffffffff16815260200191505060405180910390f35b610271610632565b6040518082815260200191505060405180910390f35b60005481106102fe576040517f08c379a00000000000000000000000000000000000000000000000000000000081526004018080602001828103825260178152602001807f6164766572746973656d656e74206e6f7420666f756e6400000000000000000081525060200191505060405180910390fd5b60006001600083815260200190815260200160002060009054906101000a900473ffffffffffffffffffffffffffffffffffffffff1690503373ffffffffffffffffffffffffffffffffffffffff168173ffffffffffffffffffffffffffffffffffffffff16146103ba576040517f08c379a00000000000000000000000000000000000000000000000000000000081526004018080602001828103825260378152602001806106396037913960400191505060405180910390fd5b7ffb6f3302ea0b21e6fb7e75f55af196fc157dad9ae838b756ba01f066f841ad26826040518082815260200191505060405180910390a15050565b6000806000549050336001600083815260200190815260200160002060006101000a81548173ffffffffffffffffffffffffffffffffffffffff021916908373ffffffffffffffffffffffffffffffffffffffff1602179055503373ffffffffffffffffffffffffffffffffffffffff16851515876040518082805190602001908083835b6020831061049d578051825260208201915060208101905060208303925061047a565b6001836020036101000a03801982511681845116808217855250505050505090500191505060405180910390207f0586000f03633d0197ea9d6156693716b160e0848b1129974339854fc86bce74848a8989604051808581526020018060200184815260200180602001838103835286818151815260200191508051906020019080838360005b8381101561053f578082015181840152602081019050610524565b50505050905090810190601f16801561056c5780820380516001836020036101000a031916815260200191505b50838103825284818151815260200191508051906020019080838360005b838110156105a557808201518184015260208101905061058a565b50505050905090810190601f1680156105d25780820380516001836020036101000a031916815260200191505b50965050505050505060405180910390a46001600080828254019250508190555080915050949350505050565b60016020528060005260406000206000915054906101000a900473ffffffffffffffffffffffffffffffffffffffff1681565b6000548156fe6164766572746973656d656e742063616e206f6e6c7920626520696e76616c696461746564206279206974732061647665727469736572a265627a7a72315820f337c46c6bb44d6e811bab0aa9be0a823f6072835639dfefd1d6983bc8335ceb64736f6c63430005100032",
  "source": "pragma solidity >=0.4.21 <0.7.0;\n\ncontract PeekABook {\n    event Advertise(\n        uint adID,\n        string indexed pairIndex,\n        string pair,\n        bool indexed buyOrSell,\n        uint amount,\n        string peerID,\n        address indexed advertiser\n    );\n    event Invalidate(uint adID);\n\n    uint public maxID;\n\n    mapping (uint => address) public advertisers;\n\n    function advertise(string memory pair, bool buyOrSell, uint amount, string memory peerID) public returns(uint) {\n        uint adID = maxID;\n        advertisers[adID] = msg.sender;\n        emit Advertise(adID, pair, pair, buyOrSell, amount, peerID, msg.sender);\n        maxID += 1;\n        return adID;\n    }\n\n    function invalidate(uint adID) public {\n        require(adID < maxID, \"advertisement not found\");\n        address advertiser = advertisers[adID];\n        require(advertiser == msg.sender, \"advertisement can only be invalidated by its advertiser\");\n        emit Invalidate(adID);\n    }\n}\n",
  "sourcePath": "/home/runner/work/peek-a-book/peek-a-book/contracts/PeekABook.sol",
  "compiler": {
    "name": "solc",
    "version": "0.5.16+commit.9c3226ce.Emscripten.clang"
  },
  "schemaVersion": "3.2.0",
  "updatedAt": "2020-06-17T14:43:24.235Z",
  "devdoc": {
    "methods": {}
  },
  "userdoc": {
    "methods": {}
  }
}